:020000040800F2
:100000000050002001020008070200080B0200084F
:100010007D02000881020008C902000800000000FB
:1000200000000000000000000000000011030008B4
:100030001503000800000000190300085D10000807
:100040002D0300082D0300082D0300082D030008D0
:100050002D0300082D0300082D0300082D030008C0
:100060002D0300082D0300082D0300082D030008B0
:100070002D0300082D0300082D0300082D030008A0
:100080002D0300082D0300082D0300082D03000890
:100090002D0300082D0300082D0300082D03000880
:1000A0002D0300082D0300082D0300082D03000870
:1000B0002D0300082D030008000000002D03000898
:1000C0002D03000800000000000000002D030008C0
:1000D000000000002D0300082D03000800000000B0
:1000E0002D0300082D0300082D03000800B583B080
:1000F00000F0E8FC304B314A1360314A1360314B59
:10010000314A03E052F8041B43F8041B2F498B4289
:10011000F8D32A4B1A682E4B9A4200D0FEE7284BA0
:100120001A682C4B9A42F9D1234B2B4A13602B4A65
:1001300013602B4B02E0002243F8042B294A934220
:10014000F9D3254B1B6813B9244B1B6803B1FEE799
:1001500000F0A3FE694601A800F0D2FB224C234B1D
:10016000E41AA410002504E0204B53F825309847EA
:100170000135AC42F8DC1E4C1E4BE41AA4100025DD
:1001800004E01C4B53F8253098470135AC42F8DCAD
:100190000099019800F01EFF0546174C174BE41A12
:1001A000A41004E0013C154B53F824309847002C70
:1001B000F8DC284600F080FBBABADECA0000002056
:1001C0006800002000000020D81B00086C00002000
:1001D00078563412325476986C0000209801002032
:1001E0006C0000209C010020580300085803000800
:1001F0005803000858030008580300085803000873
:1002000008B5FFF773FF00BEFEE71EF0040F0CBF3A
:10021000EFF30880EFF309807146414A10472DE95A
:10022000F04182B004460D46124B5F6BD3F8388024
:100230009E6A1B6B13F0020F03D00E4BDB6A002B80
:100240000BDB0D4800F09AFB009543463A463146D9
:10025000204600F0ADFB00BEFEE74BF6AB6100F0C0
:1002600021FC0028EDD0034B4FF00042DA6202B0CF
:10027000BDE8F08100ED00E03C1B000800BEFEE799
:100280001EF0040F0CBFEFF30880EFF309807146F6
:10029000244A10472DE9F04182B004460D46084B30
:1002A0005F6BD3F838809E6A064800F067FB0095C4
:1002B00043463A463146204600F07AFB00BEFEE750
:1002C00000ED00E04C1B00081EF0040F0CBFEFF324
:1002D0000880EFF309807146134A10472DE9F04179
:1002E00082B004460D46084B5F6BD3F838809E6A97
:1002F000064800F043FB009543463A463146204607
:1003000000F056FB00BEFEE700ED00E0581B0008C1
:1003100000BEFEE700BEFEE700BEFEE7704700003D
:100320001F02000895020008DD02000800BEFEE77B
:10033000D81B0008000000206C000020D81B00081B
:1003400000000000000000006C0000209C01002064
:080350000000000000000000A5
:1003580010B504460E4B1A784FF47A73B3FBF2F3D8
:100368000C4A1068B0FBF3F000F0C6F868B90F2C1F
:1003780001D901200AE0002221464FF0FF3000F0A9
:1003880097F8054B1C60002000E0012010BD00BF5D
:1003980004000020140000200800002008B5074AC7
:1003A800136843F010031360032000F063F80F2074
:1003B800FFF7CEFF00F042FE002008BD00200240FB
:1003C800034A1168034B1B780B441360704700BF46
:1003D8007000002004000020014B1868704700BF1F
:1003E8007000002038B50446FFF7F6FF0546B4F163
:1003F800FF3F02D0044B1B781C44FFF7EDFF401B66
:10040800A042FAD338BD00BF04000020002808DB52
:100418000901C9B200F1604000F5614080F800139D
:10042800704700F00F000901C9B2014B1954704719
:1004380014ED00E000B500F00700C0F1070CBCF1B6
:10044800040F28BF4FF0040C031D062B0FD9C31E41
:100458004FF0FF3E0EFA0CF021EA000199400EFA27
:1004680003FE22EA0E0241EA02005DF804FB0023C3
:10047800EEE7000010B50446C31E042B0FD80A4A45
:10048800D36823F4E0631B041B0C240204F4E06427
:10049800234343F0BF6343F40033D36010BD92217C
:1004A800024800F0FFFCEAE700ED00E0BC19000894
:1004B80070B506460C4615460F2A0ED80F2C11D8D3
:1004C8000B4BD8682A462146C0F30220FFF7B2FF3B
:1004D80001463046FFF79AFF70BDAA21054800F093
:1004E800E1FCEBE7AB21034800F0DCFCE8E700BFE8
:1004F80000ED00E0BC1900080138B0F1807F0BD294
:100508004FF0E0235861054AF02182F823100020BB
:10051800986107221A6170470120704700ED00E0DA
:100528002DE9F04383B007460E46AD4B98420FD0F5
:1005380003F5806398420BD003F58063984207D097
:1005480003F58063984203D0BD21A64800F0AAFCB9
:1005580033689AB212B1B3F5803F03D3BE21A148E4
:1005680000F0A0FC7368012B11D99F4A93420ED06A
:1005780014D8A2F58012934209D003D99B4A93421A
:1005880005D016E0032B06D9113B012B11D84FF0EB
:1005980000094D46A0E0022B0BD3F8E7944A93429A
:1005A800F5D002F580329342F1D0A2F58012934241
:1005B800EDD0BF218B4800F075FCE8E78D4A9342E7
:1005C80010D007D98A4A93420CD002F58032934260
:1005D80008D01AE0A2F58012934203D002F57022E7
:1005E80093420ED1B368022B00F20C81B368002B42
:1005F80000F01481012B00F00A817C614FF008099A
:1006080003E0A2F580129342ECD0B8F1FF0F00F29C
:1006180008813846AA0003680F21914023EA0103A4
:1006280009FA02F213430360736813F0805F52D033
:10063800714B9A6942F001029A619B6903F00103C8
:100648000193019BAA08911C6C4B53F8210005F0FB
:10065800030189000F238B4020EA0300604B9F426F
:1006680000F0E68003F580639F4200F0E38003F525
:1006780080639F4200F0DA8003238B4003430232F9
:100688005E4941F82230736813F4803F00F0D4804B
:100698005B4A136843EA08031360736813F4003F66
:1006A80000F0D080564A536843EA080353607368E1
:1006B80013F4801F00F0CC80514A936843EA080382
:1006C8009360736813F4001F00F0C8804C4AD36825
:1006D80043EA0803D3600135336833FA05F200F0C2
:1006E800C3800124AC4003EA040834EA0303F2D1CE
:1006F8003B4B9F420FD003F580639F420BD003F51D
:1007080080639F4207D003F580639F4203D0CD21C9
:10071800344800F0C7FB7368122B3FF64FAF122B1B
:100728003FF673AF01A252F823F000BFED050008B1
:1007380081070008B30700081F080008130600080F
:10074800130600081306000813060008130600081D
:10075800130600081306000813060008130600080D
:1007680013060008130600081306000813060008FD
:1007780099070008CD070008F368013B022B02D84F
:10078800D6F80C9041E7D521164800F08BFBF7E727
:10079800F368013B022B03D8F36803F1040934E73B
:1007A800DC21104800F07EFBF6E7F368013B022BE2
:1007B80003D8F36803F1080927E7E321094800F0A3
:1007C80071FBF6E7F368013B022B03D8F36803F1EA
:1007D8000C091AE7EA21034800F064FBF6E700BFBA
:1007E80000080140F0190008000021100000121054
:1007F80000003110000022100010024000000140EB
:1008080000040140F7211A4800F04CFBEEE63C6179
:100818004FF00809F9E64FF00009F6E64FF0040931
:10082800F3E6381DA5F108029200F4E6022324E756
:10083800002322E7012320E70E4A136823EA08036E
:1008480013602AE70B4A536823EA080353602EE72C
:10085800084A936823EA0803936032E7054AD36895
:1008680023EA0803D36036E703B0BDE8F08300BF8E
:10087800F01900080004014070B5054614460E46FC
:1008880021B1012C08D86CB12E6170BD4FF4EA710A
:10089800064800F007FBF4E740F2D511034800F0E2
:1008A80001FBF0E736042E61EFE700BFF0190008FE
:1008B800FEE7000008B503460C4A12685AB10B4A15
:1008C8001068033323F003030344094A934206D80C
:1008D800064A136008BD054A06491160EFE700F0B3
:1008E80001FC0C2303604FF0FF30F3E77400002095
:1008F800004C00209C01002001230360014B0B6089
:10090800704700BF0C0000202DE9F04385B0044675
:100918000F4643563BBB042528462146ABBE054639
:10092800384605B0BDE8F08314F901CB03F1100295
:100938006A4402F810CC0133AB42F5D310336B4450
:10094800002203F8102C4FF00408E94640464946B7
:10095800ABBE8046761B002EE2D03546102E28BF4F
:1009680010250023E8E70E46F5E708B5FFF7CCFFAA
:1009780008BD00000FB400B583B004AB53F8042BD6
:1009880001938021074800F097FB002804DC03B09E
:100998005DF804EB04B0704701460248FFF7E5FF35
:1009A800F5E700BF80000020F8B504460D4617465D
:1009B8001E462748FFF7DEFF21682648FFF7DAFFC3
:1009C80061682548FFF7D6FFA1682448FFF7D2FFE2
:1009D800E1682348FFF7CEFF21692248FFF7CAFFE5
:1009E80061692148FFF7C6FFA1692048FFF7C2FFE8
:1009F800E1691F48FFF7BEFF1E48FFF7BBFF294606
:100A08001D48FFF7B7FF1D4CE16A1D48FFF7B2FF0D
:100A1800216B1C48FFF7AEFFE16B1B48FFF7AAFFED
:100A280015F0800F0AD115F4004F0CD11748FFF7C5
:100A3800A1FF06991648FFF79DFFF8BD39461548EE
:100A4800FFF798FFEFE731461348FFF793FFEDE70D
:100A5800201A0008301A0008401A0008501A000826
:100A6800601A0008701A0008801A0008901A000816
:100A7800A01A0008B01A0008BC1A000800ED00E02F
:100A8800CC1A0008DC1A0008EC1A00081C1B000825
:100A9800241B0008FC1A00080C1B000883691A882C
:100AA8008A4201D0002070470268033A012A01D91E
:100AB80000207047023383610120704708B500F0B9
:100AC80009F8024A024B9A6008BD00BF00000008FE
:100AD80000ED00E0704700001F4B5B6803F00C035B
:100AE800042B14D0082B16D01BB11C4B1C4A1A60BF
:100AF80002E01A4B1A4A1A60174B5B68C3F30313D8
:100B0800184AD15C154A1368CB4013607047134BE1
:100B1800134A1A60F0E7104A53685268C3F38343D4
:100B2800023312F4803F05D10F4A02FB03F30B4A4C
:100B38001360E1E7084A526812F4003F05D00A4AF8
:100B480002FB03F3054A1360D6E7054A02FB03F3E9
:100B5800024A1360D0E700BF0010024014000020D2
:100B680000127A00681B000800093D0008B5FFF76D
:100B780039FC08BD38B504460D46002A4CD0012A78
:100B88004FD005F00102218B6069FFF775FEC5F3B0
:100B98004002218CE069FFF76FFEC5F38002218DCA
:100BA800606AFFF769FEC5F3C002218EE06AFFF7AD
:100BB80063FEC5F30012218F606BFFF75DFEC5F37E
:100BC8004012B4F84010E06BFFF756FEC5F38012F0
:100BD800B4F84810606CFFF74FFEEA09B4F85010FB
:100BE800E06CFFF749FE0022218AE068FFF744FE27
:100BF8000120FFF7BBFF0122218AE068FFF73CFED6
:100C08000120FFF7B3FF0022218AE068FFF734FED6
:100C18000120FFF7ABFF38BD01894068FFF72CFEC4
:100C2800AFE7012201894068FFF726FEA9E770B502
:100C380004460D460E09002A67D0012A6AD006F03C
:100C48000102218F606BFFF717FEC5F34012B4F85D
:100C58004010E06BFFF710FEC5F38012B4F848109F
:100C6800606CFFF709FEEA09B4F85010E06CFFF772
:100C780003FE0022218AE068FFF7FEFD0120FFF74E
:100C880075FF0122218AE068FFF7F6FD0120FFF7D2
:100C98006DFF0022218AE068FFF7EEFD0120FFF7D3
:100CA80065FF05F00102218F606BFFF7E5FDC5F3D5
:100CB8004002B4F84010E06BFFF7DEFDC5F3800298
:100CC800B4F84810606CFFF7D7FDC5F3C002B4F85C
:100CD8005010E06CFFF7D0FD0022218AE068FFF792
:100CE800CBFD0120FFF742FF0122218AE068FFF7D0
:100CF800C3FD0120FFF73AFF0022218AE068FFF7D1
:100D0800BBFD0120FFF732FF70BD01894068FFF786
:100D1800B3FD94E7012201894068FFF7ADFD8EE736
:100D280038B5044600250570417082704360BDF8EF
:100D380010300381059BC360BDF818300382079B00
:100D48004363BDF820300387099BC363BDF828308F
:100D5800A0F840300B9B4364BDF83030A0F8483011
:100D68000D9BC364BDF83830A0F85030282380F8B4
:100D78005530062380F852300C2380F85330142362
:100D880080F854303220FFF7F1FE2A4633212046FE
:100D9800FFF74DFF0520FFF7E9FE2A4633212046DD
:100DA800FFF745FF0520FFF7E1FE2A4632212046DE
:100DB800FFF73DFF0520FFF7D9FE2A4694F85210A9
:100DC8002046FFF734FF2A4694F853102046FFF7D1
:100DD8002EFF2A4694F854102046FFF728FF2A468B
:100DE80094F855102046FFF722FF2A460121204695
:100DF800FFF71DFF2A4602212046FFF718FF38BDDE
:100E080000B583B0134B019343788B4201D8013B63
:100E1800D9B28378934201D8013BDAB202F10803D0
:100E28000DEB030212F8043C1944C9B20378102BE5
:100E380003D043B103B05DF804FB002241F0800108
:100E4800FFF798FEF6E7002241F08001FFF7EFFE7A
:100E5800F0E700BF0040145408B50378102B01D008
:100E68002BB108BD0122C9B2FFF784FEF9E70122C0
:100E7800C9B2FFF7DCFEF4E738B505460C4603E0D7
:100E880001342846FFF7E8FF94F900100029F7D14C
:100E980038BD08B5FFF782FA00F076F8FFF71CFEB8
:100EA80008BD000008B50A4601460248FFF762FD82
:100EB800FEE700BF781B000884B00022019202926E
:100EC8000392084B084919609A601A731A754FF40F
:100ED8006021D9615A6001221A610192029204B01C
:100EE800704700BF58010020002401402DE9F0415F
:100EF80088B0002404940594069407941F4B9A69BB
:100F080042F020029A619A6902F020020192019A45
:100F18009A6942F004029A619A6902F00402029204
:100F2800029A9A6942F008029A619B6903F00803E1
:100F38000393039BDFF84880224618214046FFF7B9
:100F48009BFC104D2246F0212846FFF795FC1823FC
:100F580004930127059706940226079604A940469C
:100F6800FFF7DEFAF023049305970694079604A981
:100F78002846FFF7D5FA08B0BDE8F0810010024016
:100F880000080140000C014000B595B0282200215E
:100F98000DEB020000F09EF80023059306930793DB
:100FA80008930993019302930393049301230A93EB
:100FB8004FF480320B920E930223119312920F2258
:100FC80005920693019315B05DF804FB10B590B037
:100FD800FFF7E4F9FFF770FFFFF788FF144B802253
:100FE8000A92144A099240210891079220210691F9
:100FF8000592102104910392082202920193009114
:1010080002220D48FFF78CFE00230C930D930E93DC
:101018000F93094C002211462046FFF7F1FE0CA958
:101028002046FFF729FF4FF47A70FFF7DBF9F0E766
:1010380000080140000C014000010020704700003A
:10104800034B1B681BB1024A1368013B13607047CE
:101058008801002008B5FFF7B3F9FFF7F1FF08BDD5
:1010680030B51446002C05461A469BB005DA8B238A
:1010780003604FF0FF301BB030BD4FF40273ADF882
:101088000C300CBF234604F1FF33029305934FF64F
:10109800FF7300910491ADF80E3069461E9B00F075
:1010A80083F8431CBCBF8B232B60002CE3D00022A9
:1010B800009B1A70DFE7000007B5009313460A4645
:1010C800014603480068FFF7CBFF03B05DF804FB57
:1010D8001800002003460244934200D1704703F8E9
:1010E800011BF9E7014B1868704700BF1800002082
:1010F8002DE9F0471F468E688246BE420C46904650
:101108000B682DD8B1F90C2012F4906F26D06569C0
:10111800096905EB4505A3EB010905EBD5757B1CB2
:101128004B446D109D4238BF1D46530527D52946AF
:1011380000F074FB064660B34A46216900F0F6FAEF
:10114800A38923F4906343F08003A38126614E446E
:1011580026603E466561A5EB0905A560BE4200D93B
:101168003E4632464146206800F0B8FA0020A3689F
:101178009B1BA360236833442360BDE8F0872A469D
:1011880000F0D0FB06460028E0D15046216900F067
:10119800DBFA0C23CAF80030A3894FF0FF3043F084
:1011A8004003A381E9E700002DE9F04F98468B89B9
:1011B80007461B060D4614469DB010D50B6973B93A
:1011C800402100F02BFB2860286130B90C233B60DC
:1011D8004FF0FF301DB0BDE8F08F40236B61002356
:1011E800099320238DF8293030234FF00109CDF8D9
:1011F8000C80DFF898818DF82A3023469A4613F838
:10120800012B0AB1252AF9D1BAEB040B0BD05B46A6
:10121800224629463846FFF76BFF013000F0A780C9
:10122800099A5A4409929AF80030002B00F09F80DE
:1012380000234FF0FF32CDE905230AF1010A049398
:1012480007938DF853301A935446052214F8011B5E
:101258004E4800F05DFA049AD8B9D00644BF20235E
:101268008DF85330110744BF2B238DF853309AF86B
:1012780000302A2B15D0544600204FF00A0C079A4C
:10128800214611F8013B303B092B4BD9B0B10792ED
:1012980014E0A0EB080309FA03F31343A2460493EE
:1012A800D2E7039B191D1B680391002BBBBF5B4250
:1012B80042F0020207930793B8BF049223782E2BBB
:1012C8000AD163782A2B32D1039B02341A1D1B687A
:1012D800039243EAE3730593DFF8B4A00322504670
:1012E800217800F015FA38B14022049BA0EB0A00DF
:1012F800824013430134049314F8011B0622254845
:101308008DF8281000F004FA002836D0224B1BBBB9
:10131800039B073323F0070308330393099B3344E4
:1013280009936AE70C4601200CFB0232A8E7002368
:101338004FF00A0C194601340593204610F8012B8A
:10134800303A092A03D9002BC6D00591C4E70446D0
:1013580001230CFB0121F0E703AB00932A46384632
:101368000E4B04A9AFF30080421C0646D6D1AB89C8
:101378005B063FF52DAF09982CE703AB00932A468F
:101388003846064B04A900F07DF8EDE7A51B0008D8
:10139800AB1B0008AF1B000800000000F910000894
:1013A8002DE9F047164698468A680B690746934226
:1013B800B8BF1346336091F843200C46DDF82090FF
:1013C8000AB1013333602368990642BF3368023398
:1013D8003360256815F0060506D104F1190AE3689B
:1013E80032689B1AAB422BDC94F843302268003BEE
:1013F80018BF0123920630D44146384604F143020F
:10140800C847013023D02368226903F00603042B60
:1014180014BF002533684FF0000608BFE56804F1E3
:101428001A0408BFED1A54F8123C08BF25EAE575FE
:101438009342C4BF9B1AED18B5421AD1002008E0A8
:101448000123524641463846C847013003D14FF080
:10145800FF30BDE8F0870135C1E73020E11881F899
:1014680043005A1C94F845102244023382F8431072
:10147800C2E70123224641463846C8470130E6D034
:101488000136D9E72DE9FF470F7E9146782F804630
:101498000C469A460C9E01F1430207D8622F0AD8DF
:1014A800002F00F0DD80582F00F0C38004F14206C1
:1014B80084F842703AE0A7F16303152BF6D801A12E
:1014C80051F823F02515000839150008B51400084F
:1014D800B5140008B5140008B5140008391500083B
:1014E800B5140008B5140008B5140008B5140008B0
:1014F8004F160008C715000807160008B51400089D
:10150800B514000871160008B5140008C7150008BE
:10151800B5140008B51400080F16000833681A1D22
:101528001B68326004F1420684F842300123A8E0C7
:1015380031682368081D30601E0601D50D6803E078
:101548005D06FBD5B1F90050002D616878DA2D20D1
:10155800002984F84300A1602DDA0A235D486D4212
:101568001646B5FBF3F103FB1157C75D06F8017D7D
:101578002F46BB420D46F4D9082B0BD12368DF0751
:1015880008D5236961689942DEBF302306F8013C1B
:1015980006F1FF36921B22614B4621464046CDF8A4
:1015A80000A003AAFFF7FCFE01306FD14FF0FF3017
:1015B80004B0BDE8F08723F004032360CDE7216879
:1015C8003368080653F8045B02D4490648BFADB235
:1015D8006F2F336014BF0A2308233E48002184F884
:1015E80043106668002EA660BADB216821F004016A
:1015F8002160002DB4D1002EB2D11646BCE7236875
:1016080043F0200323607827334884F84570236823
:1016180031681F0651F8045B02D45F0648BFADB2BB
:101628003160D90744BF43F0200323601DB1102364
:10163800D4E72848E9E7236823F020032360F6E786
:101648000A232448CDE733682568181D616930608E
:101658002E061B6801D5196002E06806FBD51980C3
:1016680000231646236197E7336800211A1D32606C
:101678001E686268304600F04BF808B1801B606055
:1016880063682361002384F8433085E7324649467E
:1016980040462369D047013088D023689B0714D47B
:1016A800E068039B9842B8BF184681E70123324699
:1016B80049464046D04701303FF478AF0135E368EA
:1016C80003995B1AAB42F1DCEAE7002504F119063D
:1016D800F5E700BFB61B0008C71B0008884210B515
:1016E80001EB020402D98442234607D8431EA142D3
:1016F80008D011F8012B03F8012FF8E7014602443E
:101708008A4200D110BD13F8014D02F8014DF7E7E8
:10171800034610B5C9B202449342184601D10020CD
:1017280003E0047801338C42F6D110BD0A4491429B
:1017380000F1FF3300D1704710B511F8014B914209
:1017480003F8014FF9D110BD38B50546002940D03E
:1017580051F8043C0C1F002BB8BFE41800F0D6F871
:101768001C4A136833B9636014602846BDE83840E2
:1017780000F0D2B8A34208D9206821188B4201BFD3
:1017880019685B6809182160EDE71A465B680BB1B8
:10179800A342FAD911685018A0420BD1206801441D
:1017A800501883421160E0D118685B6808441060E3
:1017B8005360DAE702D90C232B60D6E7206821189A
:1017C8008B4201BF19685B68091821606360546027
:1017D800CBE738BD9001002070B50F4E0C4631683C
:1017E800054611B900F0CCF830602146284600F0D3
:1017F800C7F8431C03D14FF0FF34204670BDC41C0A
:1018080024F00304A042F8D0211A284600F0B8F8C2
:101818000130F2D1EFE700BF8C0100202DE9F04143
:10182800CD1C25F0030508350C2D38BF0C25002DDF
:10183800064601DBA94204D90C2333600020BDE829
:10184800F081314F00F062F83B681C4644BB2946E2
:101858003046FFF7C1FF431C044650D13C6821467F
:10186800002941D1002C44D02368304604EB0308FA
:1018780000F086F880453CD1216830466D1A29462B
:10188800FFF7AAFF013034D023682B4423603B685C
:10189800002B36D05A68A24229D100225A600EE0A5
:1018A8002268521B1DD40B2A16D96119A342256040
:1018B80018BF5960636808BF396062514B60304691
:1018C80000F02AF804F10B00231D20F00700C21ACB
:1018D800B5D01B1AA350B2E7A3426268DED13A60C2
:1018E800EDE723466468B1E70C464968B8E7134654
:1018F800CEE70C233046336000F00EF89EE7056013
:10190800DDE75B60FFDE00BF90010020014800F0CA
:1019180047B800BF94010020014800F042B800BF5A
:10192800940100202DE9F041804615460C4621B966
:101938001146BDE8F041FFF771BF2AB9FFF704FF70
:1019480000242046BDE8F08100F02CF885420646C8
:1019580002D8B5EB500FF4D829464046FFF75EFF92
:1019680007460028ECD0B5422A46214628BF324611
:10197800FFF7DCFE21464046FFF7E6FE3C46E0E77F
:1019880038B50023054D044608462B60FEF792FF44
:10199800431C02D12B6803B1236038BD7C000020B2
:1019A8007047704751F8043C181F002BBCBF0B58F8
:1019B800C01870472E2E2F73797374656D2F73724C
:1019C800632F73746D333266312D68616C2F7374B5
:1019D8006D3332663178785F68616C5F636F7274FB
:1019E80065782E63000000002E2E2F7379737465BE
:1019F8006D2F7372632F73746D333266312D686186
:101A08006C2F73746D3332663178785F68616C5F00
:101A18006770696F2E630000537461636B20667290
:101A2800616D653A0A000000205230203D202025D3
:101A38003038580A00000000205231203D2020256F
:101A48003038580A00000000205232203D2020255E
:101A58003038580A00000000205233203D2020254D
:101A68003038580A0000000020523132203D20252D
:101A78003038580A00000000204C52203D20202514
:101A88003038580A00000000205043203D2020250F
:101A98003038580A0000000020505352203D2025BD
:101AA8003038580A000000004653522F4641523A37
:101AB8000A0000002043465352203D20202530389C
:101AC800580A00002048465352203D20202530382F
:101AD800580A00002044465352203D202025303823
:101AE800580A00002041465352203D202025303816
:101AF800580A0000204D4D464152203D20253038DF
:101B0800580A00002042464152203D202025303806
:101B1800580A00004D6973630A000000204C522FD8
:101B28004558435F52455455524E3D20253038584C
:101B38000A0000005B486172644661756C745D0A56
:101B4800000000005B4275734661756C745D0A00A5
:101B58005B55736167654661756C745D0A000000CA
:101B68000000000000000000010203040607080945
:101B780057726F6E6720706172616D6574657273FC
:101B88002076616C75653A2066696C65202573203E
:101B98006F6E206C696E652025640D0A00232D3058
:101BA8002B2000686C4C006566674546470030315D
:101BB80032333435363738394142434445460030AC
:101BC80031323334353637383961626364656600DB
:101BD8007856341201FFFFFF100000007800002043
:101BE800000000000024F4001C0000200000000099
:101BF8000000000068000000D000000000000000A5
:101C080000000000000000000000000000000000CC
:101C180000000000000000000000000000000000BC
:101C280000000000000000000000000000000000AC
:0C1C38000000000000000000325476980C
:04000005080000ED02
:00000001FF
